:100000000C945E000C9486000C9486000C94860080
:100010000C9486000C9486000C9486000C94860048
:100020000C9486000C9486000C9486000C94860038
:100030000C9486000C9486000C9486000C94860028
:100040000C941A030C9486000C9486000C94860081
:100050000C9486000C9486000C9486000C94860008
:100060000C9486000C948600000000080002010039
:100070000003040700000000000000000000000072
:10008000250028002B0000000000240027002A0083
:10009000040404040404040402020202020203032E
:1000A0000303030301020408102040800102040836
:1000B00010200102040810208604EC0411241FBE45
:1000C000CFEFD8E0DEBFCDBF24E0AAECB3E001C0A3
:1000D0001D92A733B207E1F713E0A0E0B1E0E2E838
:1000E000FEE002C005900D92AA3CB107D9F710E0DE
:1000F000CDE5D0E004C02197FE010E943C05CC353F
:10010000D107C9F70E9464030C9434070C940000D3
:1001100090E0FC01EC55FF4F249180579F4FFC016C
:100120008491882399F090E0880F991FFC01EA5789
:10013000FF4FA591B491FC01E458FF4F8591949134
:100140008FB7F894EC91E22BEC938FBF089590E079
:10015000FC01E859FF4F2491FC01EC55FF4F34910D
:10016000FC01E057FF4FE491EE23C9F0222339F060
:10017000233001F1A8F4213019F1223029F1F0E007
:10018000EE0FFF1FE458FF4FA591B4918FB7F8947D
:10019000EC91611126C030953E233C938FBF0895AA
:1001A0002730A9F02830C9F0243049F78091800029
:1001B0008F7D03C0809180008F7780938000DFCF98
:1001C00084B58F7784BDDBCF84B58F7DFBCF8091E5
:1001D000B0008F778093B000D2CF8091B0008F7D38
:1001E000F9CF3E2BDACF3FB7F89480911704909166
:1001F0001804A0911904B0911A0426B5A89B05C053
:100200002F3F19F00196A11DB11D3FBFBA2FA92F95
:10021000982F8827BC01CD01620F711D811D911D92
:1002200042E0660F771F881F991F4A95D1F70895FE
:100230008F929F92AF92BF92CF92DF92EF92FF92F6
:100240004B015C010E94F3006B017C010E94F300F2
:100250006C197D098E099F09683E734081059105DF
:10026000A8F321E0821A9108A108B10888EEC80E0F
:1002700083E0D81EE11CF11C81149104A104B10497
:1002800029F7FF90EF90DF90CF90BF90AF909F90B5
:100290008F900895AF92BF92CF92DF92EF92FF922C
:1002A0000F931F93CF93DF936C017B018B01040F9E
:1002B000151FEB015E01AE18BF08C017D10759F03A
:1002C0006991D601ED91FC910190F081E02DC6017C
:1002D0000995892B79F7C501DF91CF911F910F9176
:1002E000FF90EF90DF90CF90BF90AF90089508956A
:1002F00090E080E00895FC0180819181009711F0E9
:100300000C94DE050895CF93DF93EC0160E08E81BD
:100310000E94A70061E08E810E94A70060E08E81AC
:100320000E94A7008BE891E00197F1F7DF91CF9150
:100330000895CF92DF92EF92FF920F931F93CF9386
:10034000DF936C017C0187E0E80EF11CD0E0C0E097
:10035000062F10E0B8010C2E02C0759567950A941F
:10036000E2F76170F70181917F010E94A700219659
:10037000C430D10579F7C601DF91CF911F910F915C
:10038000FF90EF90DF90CF900C948301CF92DF929B
:10039000EF92FF920F931F93CF93DF93EC01F62E12
:1003A000642F8C810E94A7008D818F3F19F060E03F
:1003B0000E94A7000F2D10E08F8584FF25C06E01DD
:1003C00087E0C80ED11CF12CE12CB8010E2C02C024
:1003D000759567950A94E2F76170F60181916F0156
:1003E0000E94A700FFEFEF1AFF0A88E0E816F10469
:1003F00061F7CE01DF91CF911F910F91FF90EF90A8
:10040000DF90CF900C948301B80184E075956795D7
:100410008A95E1F7CE010E9499016F2DCE01DF91FF
:10042000CF911F910F91FF90EF90DF90CF900C94A0
:10043000990140E0682F8BE194E00C94C60181E0C3
:100440000E9419028BE39FE10197F1F70895CF9382
:10045000DF93823029F490912A04986090932A04C3
:1004600080932E0410922F0480E48093300480E166
:100470008093310480E58093320480911F040E94B0
:100480008800809120048F3F11F00E9488008091A5
:1004900021040E948800CBE1D4E09E012B5134401E
:1004A00080912A0484FD0AC084E090E021962817F8
:1004B00039073CF48E810E948800EFCF88E090E0FD
:1004C000F5CF8BE39DE00197F1F760E080911F0489
:1004D0000E94A70060E0809121040E94A700809103
:1004E00020048F3F19F060E00E94A70080912A0449
:1004F00084FD34C063E08BE194E00E949901CBE479
:10050000D6E4CE010197F1F763E08BE194E00E941D
:1005100099012197F1F763E08BE194E00E94990142
:1005200083E592E00197F1F762E08BE194E00E94AD
:10053000990180912A0480620E94190284E08093CC
:100540002B048CE00E9419020E941F0282E080931B
:100550002C0486E0DF91CF910C94190280620E94F6
:1005600019028BE496E40197F1F780912A048062E6
:100570000E94190283E592E00197F1F780912A0425
:1005800080620E941902D5CF41E00E94C60181E03D
:1005900090E00895EF92FF920F931F93CF93DF9314
:1005A000EC017B018A0188819981009729F02A81D9
:1005B0003B812417350788F4B8016F5F7F4F0E9495
:1005C0006706009791F0998388831B830A832C81A7
:1005D0003D81232B11F4FC0110821D830C83B70194
:1005E000888199810E942D070CC08881998100978C
:1005F00011F00E94DE05198218821D821C821B8266
:100600001A82CE01DF91CF911F910F91FF90EF9051
:100610000895FC01118210821382128215821482C5
:10062000FB0101900020E9F73197AF01461B570B02
:100630000C94CA021F920F920FB60F9211242F939F
:100640003F938F939F93AF93BF93809113049091A7
:100650001404A0911504B09116043091120423E003
:10066000230F2D3758F50196A11DB11D20931204BB
:100670008093130490931404A0931504B09316046C
:100680008091170490911804A0911904B0911A0454
:100690000196A11DB11D8093170490931804A09397
:1006A0001904B0931A04BF91AF919F918F913F911C
:1006B0002F910F900FBE0F901F90189526E8230FD3
:1006C0000296A11DB11DD2CFCF93DF93CDB7DEB778
:1006D0002C970FB6F894DEBF0FBECDBF789484B5CB
:1006E000826084BD84B5816084BD85B5826085BD2E
:1006F00085B5816085BD80916E00816080936E00BC
:1007000010928100809181008260809381008091AD
:10071000810081608093810080918000816080935E
:1007200080008091B10084608093B1008091B0001E
:1007300081608093B00080917A00846080937A0019
:1007400080917A00826080937A0080917A00816043
:1007500080937A0080917A00806880937A0010926A
:10076000C10082E00E9427020E941F0220E0222E88
:1007700020E0322E8EEE682E83E0782E9AECC92E81
:1007800093E0D92E18861F821A8619861C861B862E
:10079000F301608171816115710531F044815581EA
:1007A000CE0107960E94CA024B845C8410E000E0F0
:1007B000FFE04F0E511C401651060CF469C00E9418
:1007C0001F02E1E080912E048111E0E0E195F0E06C
:1007D000E55EFB4F848980680E9419024801580138
:1007E00080E1A80EB11CA016B10610F44501580115
:1007F00069EC73E0CE0101960E940903EB84FC844E
:100800008E149F0418F5AE14BF0408F47501EF812F
:10081000F885EE0DFF1DB08010826F817885680D20
:10082000791D6115710539F1FB0101900020E9F78F
:100830003197AF01461B570BCE0101960E94CA02A9
:100840008F819885E80EF91EF701B0824D815E8197
:1008500069817A818BE194E00E944A01CE01019680
:100860000E947B0162E370E080E090E00E9418014A
:100870000F5F1F4FA0CF89819A81009711F00E94CE
:10088000DE051A8219821E821D821C821B82D8CF2D
:100890000E941F02E0912E04E230B0F5E150F0E03A
:1008A000E55EFB4F848980680E941902F60144814D
:1008B0005581608171818BE194E00E944A0168E575
:1008C00072E080E090E00E9418010E941F0268EE32
:1008D00073E080E090E00E941801CE0107960E942C
:1008E0007B01F6E06F0E711C86E0C80ED11CEEEEA7
:1008F000F3E0EC15FD0509F045CF2114310409F4AE
:1009000039CF0E94000036CFE1E0C9CFEBE1F4E03F
:10091000138212828AE091E0918380838CE0848349
:100920008FEF85838BE0868385E0878384E08087F3
:1009300083E0818782E08287138614861586168677
:10094000178681E00E94270262E171E08EEE93E05B
:100950000E94090365E771E084EF93E00E940903B8
:100960006BED71E08AEF93E00E9409036DE372E0A2
:1009700080E094E00E9409036FE972E086E094E071
:100980000E94090363E073E08CE094E00E94090395
:1009900064E673E08AEC93E00E94090365E773E084
:1009A00080ED93E00E94090366E873E086ED93E032
:1009B0000E94090367E973E08CED93E00E9409034C
:1009C00068EA73E082EE93E00E94090369EB73E04A
:1009D00088EE93E00C940903CF93DF93CEEED3E03F
:1009E0002697CE010E947B0183E0CA3CD807C1F75D
:1009F000C2E1D4E02697CE010E947B0183E0CE3E87
:100A0000D807C1F7DF91CF9108952F923F924F926F
:100A10005F926F927F928F929F92AF92BF92CF928E
:100A2000DF92EF92FF920F931F93CF93DF93CDB797
:100A3000DEB7CA1BDB0B0FB6F894DEBF0FBECDBF0F
:100A400009942A88398848885F846E847D848C84E0
:100A50009B84AA84B984C884DF80EE80FD800C81E9
:100A60001B81AA81B981CE0FD11D0FB6F894DEBFCC
:100A70000FBECDBFED010895EE0FFF1F0590F4915D
:100A8000E02D09940F931F93CF93DF93823091054C
:100A900010F482E090E0E0913504F091360430E00B
:100AA00020E0B0E0A0E0309799F42115310509F479
:100AB0004AC0281B390B24303105D8F58A819B8127
:100AC0006115710589F1FB0193838283FE0111C0D9
:100AD000408151810281138148175907E0F048177E
:100AE000590799F4109761F012960C931297139688
:100AF0001C933296CF01DF91CF911F910F910895F2
:100B00000093350410933604F4CF2115310551F0CC
:100B10004217530738F0A901DB019A01BD01DF013B
:100B2000F801C1CFEF01F9CF9093360480933504DB
:100B3000CDCFFE01E20FF31F819391932250310933
:100B400039832883D7CF2091330430913404232B69
:100B500041F4209102013091030130933404209339
:100B6000330420910001309101012115310541F438
:100B70002DB73EB74091040150910501241B350B60
:100B8000E0913304F0913404E217F307A0F42E1B34
:100B90003F0B2817390778F0AC014E5F5F4F2417E1
:100BA000350748F04E0F5F1F5093340440933304D1
:100BB000819391939FCFF0E0E0E09CCFCF93DF93C0
:100BC0000097E9F0FC01329713821282A09135045C
:100BD000B0913604ED0130E020E01097A1F42081BF
:100BE0003181820F931F20913304309134042817F0
:100BF000390709F061C0F0933404E0933304DF91C6
:100C0000CF910895EA01CE17DF07E8F54A815B81AD
:100C10009E0141155105B1F7E901FB83EA83499132
:100C20005991C40FD51FEC17FD0761F480819181A4
:100C30000296840F951FE9019983888382819381AD
:100C40009B838A83F0E0E0E012968D919C9113974C
:100C50000097B9F52D913C911197CD010296820F25
:100C6000931F20913304309134042817390739F643
:100C7000309751F51092360410923504B093340435
:100C8000A0933304BCCFD383C28340815181840FAE
:100C9000951FC817D90761F44E5F5F4F888199810E
:100CA000480F591F518340838A819B81938382839C
:100CB0002115310509F0B0CFF0933604E0933504E7
:100CC0009ECFFD01DC01C0CF13821282D7CFB0E0EE
:100CD000A0E0EDE6F6E00C9407058C01009751F4D6
:100CE000CB010E9442058C01C801CDB7DEB7E0E11F
:100CF0000C942305FC01E60FF71F9C0122503109DB
:100D0000E217F30708F49DC0D901CD91DC9111974A
:100D1000C617D70798F0C530D10530F3CE01049738
:100D20008617970708F3C61BD70B2297C193D19359
:100D30006D937C93CF010E94DE05D6CF5B01AC1A88
:100D4000BD0A4C018C0E9D1EA0913504B091360455
:100D5000512C412CF12CE12C109731F5809133046A
:100D6000909134048815990509F05CC04616570621
:100D700008F058C08091000190910101009741F462
:100D80008DB79EB74091040150910501841B950BCE
:100D9000E817F90708F055C0F0933404E0933304E2
:100DA000F90171836083A0CF8D919C911197129668
:100DB0006C90129713967C901397A815B90559F566
:100DC0006C0142E0C40ED11CCA14DB0420F1AC015A
:100DD0004A195B09DA011296159780F062827382D4
:100DE00051834083D9016D937C93E114F10471F038
:100DF000D7011396FC93EE93129776CF22968C0F21
:100E00009D1FF90191838083F301EFCFF0933604A6
:100E1000E093350469CF4816590608F42C017D018A
:100E2000D3019ACFCB010E9442057C01009749F083
:100E3000AE01B8010E942407C8010E94DE058701A7
:100E400053CF10E000E050CFFB01DC0102C0019065
:100E50000D9241505040D8F70895FB01DC010190FC
:100E60000D920020E1F7089510E0CDE5D0E004C038
:100E7000FE010E943C052196CE35D107C9F7F894B2
:020E8000FFCFA2
:100E820000003704800000000000C4024A0178011B
:100E92007701202020202020202020202020202018
:100EA20020204E6578742073746174696F6E203EE1
:100EB200204D756C756E64203E2044657374696EB6
:100EC2006174696F6E203E2043686861747261705C
:100ED2006174692053686976616A69204D6168614D
:100EE20072616A205465726D696E7573202843536E
:100EF2004D542920002020202020202020202020A6
:100F020020202020204E6578742073746174696FEC
:100F12006E203E20476861746B6F706172203E20C4
:100F220044657374696E6174696F6E203E20436814
:100F32006861747261706174692053686976616A6C
:100F420069204D61686172616A205465726D696ED3
:100F52007573202843534D5429200020202020203F
:100F620020202020202020202020204E6578742060
:100F720073746174696F6E203E204B75726C6120D0
:100F82003E2044657374696E6174696F6E203E2001
:100F9200436868617472617061746920536869762C
:100FA200616A69204D61686172616A205465726D7F
:100FB200696E7573202843534D5429200020202048
:100FC200202020202020202020202020204E657854
:100FD200742073746174696F6E203E204461646191
:100FE20072203E2044657374696E6174696F6E206D
:100FF2003E2043686861747261706174692053684D
:101002006976616A69204D61686172616A2054651E
:10101200726D696E7573202843534D542920002048
:101022002020202020202020202020202020204E90
:101032006578742073746174696F6E203E20427902
:1010420063756C6C61203E2044657374696E6174D3
:10105200696F6E203E2043686861747261706174CA
:10106200692053686976616A69204D6168617261BD
:101072006A205465726D696E7573202843534D540E
:101082002920002020202020202020202020202075
:101092002020204E6578742073746174696F6E200D
:1010A2003E2043534D54203E2044657374696E6163
:1010B20074696F6E203E204368686174726170616A
:1010C20074692053686976616A69204D616861724A
:1010D200616A205465726D696E7573202843534DA1
:1010E2005429200020202020204D756C756E64202C
:1010F200202020200020202020476861746B6F7020
:101102006172202020002020202020204B75726C4C
:101112006120202020200020202020202044616403
:10112200617220202020200020202020204279638C
:10113200756C6C612020202000202020202020437C
:0A114200534D5420202020202000EF
:00000001FF
